{
  "contractName": "Dbar",
  "abi": [
    {
      "inputs": [],
      "stateMutability": "nonpayable",
      "type": "constructor"
    },
    {
      "anonymous": false,
      "inputs": [
        {
          "indexed": true,
          "internalType": "address",
          "name": "owner",
          "type": "address"
        },
        {
          "indexed": true,
          "internalType": "address",
          "name": "spender",
          "type": "address"
        },
        {
          "indexed": false,
          "internalType": "uint256",
          "name": "value",
          "type": "uint256"
        }
      ],
      "name": "Approval",
      "type": "event"
    },
    {
      "anonymous": false,
      "inputs": [
        {
          "indexed": true,
          "internalType": "address",
          "name": "previousOwner",
          "type": "address"
        },
        {
          "indexed": true,
          "internalType": "address",
          "name": "newOwner",
          "type": "address"
        }
      ],
      "name": "OwnershipTransferred",
      "type": "event"
    },
    {
      "anonymous": false,
      "inputs": [
        {
          "indexed": true,
          "internalType": "address",
          "name": "from",
          "type": "address"
        },
        {
          "indexed": true,
          "internalType": "address",
          "name": "to",
          "type": "address"
        },
        {
          "indexed": false,
          "internalType": "uint256",
          "name": "value",
          "type": "uint256"
        }
      ],
      "name": "Transfer",
      "type": "event"
    },
    {
      "inputs": [
        {
          "internalType": "address",
          "name": "owner",
          "type": "address"
        },
        {
          "internalType": "address",
          "name": "spender",
          "type": "address"
        }
      ],
      "name": "allowance",
      "outputs": [
        {
          "internalType": "uint256",
          "name": "",
          "type": "uint256"
        }
      ],
      "stateMutability": "view",
      "type": "function",
      "constant": true
    },
    {
      "inputs": [
        {
          "internalType": "address",
          "name": "spender",
          "type": "address"
        },
        {
          "internalType": "uint256",
          "name": "amount",
          "type": "uint256"
        }
      ],
      "name": "approve",
      "outputs": [
        {
          "internalType": "bool",
          "name": "",
          "type": "bool"
        }
      ],
      "stateMutability": "nonpayable",
      "type": "function"
    },
    {
      "inputs": [
        {
          "internalType": "address",
          "name": "account",
          "type": "address"
        }
      ],
      "name": "balanceOf",
      "outputs": [
        {
          "internalType": "uint256",
          "name": "",
          "type": "uint256"
        }
      ],
      "stateMutability": "view",
      "type": "function",
      "constant": true
    },
    {
      "inputs": [],
      "name": "decimals",
      "outputs": [
        {
          "internalType": "uint8",
          "name": "",
          "type": "uint8"
        }
      ],
      "stateMutability": "view",
      "type": "function",
      "constant": true
    },
    {
      "inputs": [
        {
          "internalType": "address",
          "name": "spender",
          "type": "address"
        },
        {
          "internalType": "uint256",
          "name": "subtractedValue",
          "type": "uint256"
        }
      ],
      "name": "decreaseAllowance",
      "outputs": [
        {
          "internalType": "bool",
          "name": "",
          "type": "bool"
        }
      ],
      "stateMutability": "nonpayable",
      "type": "function"
    },
    {
      "inputs": [
        {
          "internalType": "address",
          "name": "spender",
          "type": "address"
        },
        {
          "internalType": "uint256",
          "name": "addedValue",
          "type": "uint256"
        }
      ],
      "name": "increaseAllowance",
      "outputs": [
        {
          "internalType": "bool",
          "name": "",
          "type": "bool"
        }
      ],
      "stateMutability": "nonpayable",
      "type": "function"
    },
    {
      "inputs": [],
      "name": "name",
      "outputs": [
        {
          "internalType": "string",
          "name": "",
          "type": "string"
        }
      ],
      "stateMutability": "view",
      "type": "function",
      "constant": true
    },
    {
      "inputs": [],
      "name": "owner",
      "outputs": [
        {
          "internalType": "address",
          "name": "",
          "type": "address"
        }
      ],
      "stateMutability": "view",
      "type": "function",
      "constant": true
    },
    {
      "inputs": [],
      "name": "renounceOwnership",
      "outputs": [],
      "stateMutability": "nonpayable",
      "type": "function"
    },
    {
      "inputs": [],
      "name": "symbol",
      "outputs": [
        {
          "internalType": "string",
          "name": "",
          "type": "string"
        }
      ],
      "stateMutability": "view",
      "type": "function",
      "constant": true
    },
    {
      "inputs": [],
      "name": "totalSupply",
      "outputs": [
        {
          "internalType": "uint256",
          "name": "",
          "type": "uint256"
        }
      ],
      "stateMutability": "view",
      "type": "function",
      "constant": true
    },
    {
      "inputs": [
        {
          "internalType": "address",
          "name": "to",
          "type": "address"
        },
        {
          "internalType": "uint256",
          "name": "amount",
          "type": "uint256"
        }
      ],
      "name": "transfer",
      "outputs": [
        {
          "internalType": "bool",
          "name": "",
          "type": "bool"
        }
      ],
      "stateMutability": "nonpayable",
      "type": "function"
    },
    {
      "inputs": [
        {
          "internalType": "address",
          "name": "from",
          "type": "address"
        },
        {
          "internalType": "address",
          "name": "to",
          "type": "address"
        },
        {
          "internalType": "uint256",
          "name": "amount",
          "type": "uint256"
        }
      ],
      "name": "transferFrom",
      "outputs": [
        {
          "internalType": "bool",
          "name": "",
          "type": "bool"
        }
      ],
      "stateMutability": "nonpayable",
      "type": "function"
    },
    {
      "inputs": [
        {
          "internalType": "address",
          "name": "newOwner",
          "type": "address"
        }
      ],
      "name": "transferOwnership",
      "outputs": [],
      "stateMutability": "nonpayable",
      "type": "function"
    },
    {
      "inputs": [
        {
          "internalType": "address",
          "name": "rewardsContract",
          "type": "address"
        }
      ],
      "name": "fundRewards",
      "outputs": [],
      "stateMutability": "nonpayable",
      "type": "function"
    }
  ],
  "bytecode": "0x60806040523480156200001157600080fd5b506040518060400160405280600481526020017f64626172000000000000000000000000000000000000000000000000000000008152506040518060400160405280600381526020017f44425200000000000000000000000000000000000000000000000000000000008152506200009e620000926200011560201b60201c565b6200011d60201b60201c565b8160049080519060200190620000b69291906200036e565b508060059080519060200190620000cf9291906200036e565b5050506200010f33620000e7620001e160201b60201c565b600a620000f591906200055e565b60c86200010391906200069b565b620001ea60201b60201c565b620007dd565b600033905090565b60008060009054906101000a900473ffffffffffffffffffffffffffffffffffffffff169050816000806101000a81548173ffffffffffffffffffffffffffffffffffffffff021916908373ffffffffffffffffffffffffffffffffffffffff1602179055508173ffffffffffffffffffffffffffffffffffffffff168173ffffffffffffffffffffffffffffffffffffffff167f8be0079c531659141344cd1fd0a4f28419497f9722a3daafe3b4186f6b6457e060405160405180910390a35050565b60006012905090565b600073ffffffffffffffffffffffffffffffffffffffff168273ffffffffffffffffffffffffffffffffffffffff1614156200025d576040517f08c379a0000000000000000000000000000000000000000000000000000000008152600401620002549062000456565b60405180910390fd5b62000271600083836200036460201b60201c565b8060036000828254620002859190620004a6565b9250508190555080600160008473ffffffffffffffffffffffffffffffffffffffff1673ffffffffffffffffffffffffffffffffffffffff1681526020019081526020016000206000828254620002dd9190620004a6565b925050819055508173ffffffffffffffffffffffffffffffffffffffff16600073ffffffffffffffffffffffffffffffffffffffff167fddf252ad1be2c89b69c2b068fc378daa952ba7f163c4a11628f55a4df523b3ef8360405162000344919062000478565b60405180910390a362000360600083836200036960201b60201c565b5050565b505050565b505050565b8280546200037c9062000713565b90600052602060002090601f016020900481019282620003a05760008555620003ec565b82601f10620003bb57805160ff1916838001178555620003ec565b82800160010185558215620003ec579182015b82811115620003eb578251825591602001919060010190620003ce565b5b509050620003fb9190620003ff565b5090565b5b808211156200041a57600081600090555060010162000400565b5090565b60006200042d601f8362000495565b91506200043a82620007b4565b602082019050919050565b6200045081620006fc565b82525050565b6000602082019050818103600083015262000471816200041e565b9050919050565b60006020820190506200048f600083018462000445565b92915050565b600082825260208201905092915050565b6000620004b382620006fc565b9150620004c083620006fc565b9250827fffffffffffffffffffffffffffffffffffffffffffffffffffffffffffffffff03821115620004f857620004f762000749565b5b828201905092915050565b6000808291508390505b600185111562000555578086048111156200052d576200052c62000749565b5b60018516156200053d5780820291505b80810290506200054d85620007a7565b94506200050d565b94509492505050565b60006200056b82620006fc565b9150620005788362000706565b9250620005a77fffffffffffffffffffffffffffffffffffffffffffffffffffffffffffffffff8484620005af565b905092915050565b600082620005c1576001905062000694565b81620005d1576000905062000694565b8160018114620005ea5760028114620005f5576200062b565b600191505062000694565b60ff8411156200060a576200060962000749565b5b8360020a91508482111562000624576200062362000749565b5b5062000694565b5060208310610133831016604e8410600b8410161715620006655782820a9050838111156200065f576200065e62000749565b5b62000694565b62000674848484600162000503565b925090508184048111156200068e576200068d62000749565b5b81810290505b9392505050565b6000620006a882620006fc565b9150620006b583620006fc565b9250817fffffffffffffffffffffffffffffffffffffffffffffffffffffffffffffffff0483118215151615620006f157620006f062000749565b5b828202905092915050565b6000819050919050565b600060ff82169050919050565b600060028204905060018216806200072c57607f821691505b6020821081141562000743576200074262000778565b5b50919050565b7f4e487b7100000000000000000000000000000000000000000000000000000000600052601160045260246000fd5b7f4e487b7100000000000000000000000000000000000000000000000000000000600052602260045260246000fd5b60008160011c9050919050565b7f45524332303a206d696e7420746f20746865207a65726f206164647265737300600082015250565b611be280620007ed6000396000f3fe608060405234801561001057600080fd5b50600436106100f55760003560e01c806370a0823111610097578063a457c2d711610066578063a457c2d714610276578063a9059cbb146102a6578063dd62ed3e146102d6578063f2fde38b14610306576100f5565b806370a0823114610200578063715018a6146102305780638da5cb5b1461023a57806395d89b4114610258576100f5565b806323b872dd116100d357806323b872dd14610166578063313ce5671461019657806339509351146101b4578063406941ce146101e4576100f5565b806306fdde03146100fa578063095ea7b31461011857806318160ddd14610148575b600080fd5b610102610322565b60405161010f91906113ca565b60405180910390f35b610132600480360381019061012d9190611181565b6103b4565b60405161013f91906113af565b60405180910390f35b6101506103d7565b60405161015d919061152c565b60405180910390f35b610180600480360381019061017b919061112e565b6103e1565b60405161018d91906113af565b60405180910390f35b61019e610410565b6040516101ab9190611547565b60405180910390f35b6101ce60048036038101906101c99190611181565b610419565b6040516101db91906113af565b60405180910390f35b6101fe60048036038101906101f991906110c1565b6104c3565b005b61021a600480360381019061021591906110c1565b61056d565b604051610227919061152c565b60405180910390f35b6102386105b6565b005b61024261063e565b60405161024f9190611394565b60405180910390f35b610260610667565b60405161026d91906113ca565b60405180910390f35b610290600480360381019061028b9190611181565b6106f9565b60405161029d91906113af565b60405180910390f35b6102c060048036038101906102bb9190611181565b6107e3565b6040516102cd91906113af565b60405180910390f35b6102f060048036038101906102eb91906110ee565b610806565b6040516102fd919061152c565b60405180910390f35b610320600480360381019061031b91906110c1565b61088d565b005b60606004805461033190611827565b80601f016020809104026020016040519081016040528092919081815260200182805461035d90611827565b80156103aa5780601f1061037f576101008083540402835291602001916103aa565b820191906000526020600020905b81548152906001019060200180831161038d57829003601f168201915b5050505050905090565b6000806103bf610985565b90506103cc81858561098d565b600191505092915050565b6000600354905090565b6000806103ec610985565b90506103f9858285610b58565b610404858585610be4565b60019150509392505050565b60006012905090565b600080610424610985565b90506104b8818585600260008673ffffffffffffffffffffffffffffffffffffffff1673ffffffffffffffffffffffffffffffffffffffff16815260200190815260200160002060008973ffffffffffffffffffffffffffffffffffffffff1673ffffffffffffffffffffffffffffffffffffffff168152602001908152602001600020546104b3919061157e565b61098d565b600191505092915050565b6104cb610985565b73ffffffffffffffffffffffffffffffffffffffff166104e961063e565b73ffffffffffffffffffffffffffffffffffffffff161461053f576040517f08c379a00000000000000000000000000000000000000000000000000000000081526004016105369061148c565b60405180910390fd5b61056a8161054b610410565b600a6105579190611627565b629896806105659190611745565b610e68565b50565b6000600160008373ffffffffffffffffffffffffffffffffffffffff1673ffffffffffffffffffffffffffffffffffffffff168152602001908152602001600020549050919050565b6105be610985565b73ffffffffffffffffffffffffffffffffffffffff166105dc61063e565b73ffffffffffffffffffffffffffffffffffffffff1614610632576040517f08c379a00000000000000000000000000000000000000000000000000000000081526004016106299061148c565b60405180910390fd5b61063c6000610fc9565b565b60008060009054906101000a900473ffffffffffffffffffffffffffffffffffffffff16905090565b60606005805461067690611827565b80601f01602080910402602001604051908101604052809291908181526020018280546106a290611827565b80156106ef5780601f106106c4576101008083540402835291602001916106ef565b820191906000526020600020905b8154815290600101906020018083116106d257829003601f168201915b5050505050905090565b600080610704610985565b90506000600260008373ffffffffffffffffffffffffffffffffffffffff1673ffffffffffffffffffffffffffffffffffffffff16815260200190815260200160002060008673ffffffffffffffffffffffffffffffffffffffff1673ffffffffffffffffffffffffffffffffffffffff168152602001908152602001600020549050838110156107ca576040517f08c379a00000000000000000000000000000000000000000000000000000000081526004016107c1906114ec565b60405180910390fd5b6107d7828686840361098d565b60019250505092915050565b6000806107ee610985565b90506107fb818585610be4565b600191505092915050565b6000600260008473ffffffffffffffffffffffffffffffffffffffff1673ffffffffffffffffffffffffffffffffffffffff16815260200190815260200160002060008373ffffffffffffffffffffffffffffffffffffffff1673ffffffffffffffffffffffffffffffffffffffff16815260200190815260200160002054905092915050565b610895610985565b73ffffffffffffffffffffffffffffffffffffffff166108b361063e565b73ffffffffffffffffffffffffffffffffffffffff1614610909576040517f08c379a00000000000000000000000000000000000000000000000000000000081526004016109009061148c565b60405180910390fd5b600073ffffffffffffffffffffffffffffffffffffffff168173ffffffffffffffffffffffffffffffffffffffff161415610979576040517f08c379a00000000000000000000000000000000000000000000000000000000081526004016109709061140c565b60405180910390fd5b61098281610fc9565b50565b600033905090565b600073ffffffffffffffffffffffffffffffffffffffff168373ffffffffffffffffffffffffffffffffffffffff1614156109fd576040517f08c379a00000000000000000000000000000000000000000000000000000000081526004016109f4906114cc565b60405180910390fd5b600073ffffffffffffffffffffffffffffffffffffffff168273ffffffffffffffffffffffffffffffffffffffff161415610a6d576040517f08c379a0000000000000000000000000000000000000000000000000000000008152600401610a649061142c565b60405180910390fd5b80600260008573ffffffffffffffffffffffffffffffffffffffff1673ffffffffffffffffffffffffffffffffffffffff16815260200190815260200160002060008473ffffffffffffffffffffffffffffffffffffffff1673ffffffffffffffffffffffffffffffffffffffff168152602001908152602001600020819055508173ffffffffffffffffffffffffffffffffffffffff168373ffffffffffffffffffffffffffffffffffffffff167f8c5be1e5ebec7d5bd14f71427d1e84f3dd0314c0f7b2291e5b200ac8c7c3b92583604051610b4b919061152c565b60405180910390a3505050565b6000610b648484610806565b90507fffffffffffffffffffffffffffffffffffffffffffffffffffffffffffffffff8114610bde5781811015610bd0576040517f08c379a0000000000000000000000000000000000000000000000000000000008152600401610bc79061144c565b60405180910390fd5b610bdd848484840361098d565b5b50505050565b600073ffffffffffffffffffffffffffffffffffffffff168373ffffffffffffffffffffffffffffffffffffffff161415610c54576040517f08c379a0000000000000000000000000000000000000000000000000000000008152600401610c4b906114ac565b60405180910390fd5b600073ffffffffffffffffffffffffffffffffffffffff168273ffffffffffffffffffffffffffffffffffffffff161415610cc4576040517f08c379a0000000000000000000000000000000000000000000000000000000008152600401610cbb906113ec565b60405180910390fd5b610ccf83838361108d565b6000600160008573ffffffffffffffffffffffffffffffffffffffff1673ffffffffffffffffffffffffffffffffffffffff16815260200190815260200160002054905081811015610d56576040517f08c379a0000000000000000000000000000000000000000000000000000000008152600401610d4d9061146c565b60405180910390fd5b818103600160008673ffffffffffffffffffffffffffffffffffffffff1673ffffffffffffffffffffffffffffffffffffffff1681526020019081526020016000208190555081600160008573ffffffffffffffffffffffffffffffffffffffff1673ffffffffffffffffffffffffffffffffffffffff1681526020019081526020016000206000828254610deb919061157e565b925050819055508273ffffffffffffffffffffffffffffffffffffffff168473ffffffffffffffffffffffffffffffffffffffff167fddf252ad1be2c89b69c2b068fc378daa952ba7f163c4a11628f55a4df523b3ef84604051610e4f919061152c565b60405180910390a3610e62848484611092565b50505050565b600073ffffffffffffffffffffffffffffffffffffffff168273ffffffffffffffffffffffffffffffffffffffff161415610ed8576040517f08c379a0000000000000000000000000000000000000000000000000000000008152600401610ecf9061150c565b60405180910390fd5b610ee46000838361108d565b8060036000828254610ef6919061157e565b9250508190555080600160008473ffffffffffffffffffffffffffffffffffffffff1673ffffffffffffffffffffffffffffffffffffffff1681526020019081526020016000206000828254610f4c919061157e565b925050819055508173ffffffffffffffffffffffffffffffffffffffff16600073ffffffffffffffffffffffffffffffffffffffff167fddf252ad1be2c89b69c2b068fc378daa952ba7f163c4a11628f55a4df523b3ef83604051610fb1919061152c565b60405180910390a3610fc560008383611092565b5050565b60008060009054906101000a900473ffffffffffffffffffffffffffffffffffffffff169050816000806101000a81548173ffffffffffffffffffffffffffffffffffffffff021916908373ffffffffffffffffffffffffffffffffffffffff1602179055508173ffffffffffffffffffffffffffffffffffffffff168173ffffffffffffffffffffffffffffffffffffffff167f8be0079c531659141344cd1fd0a4f28419497f9722a3daafe3b4186f6b6457e060405160405180910390a35050565b505050565b505050565b6000813590506110a681611b7e565b92915050565b6000813590506110bb81611b95565b92915050565b6000602082840312156110d7576110d66118b7565b5b60006110e584828501611097565b91505092915050565b60008060408385031215611105576111046118b7565b5b600061111385828601611097565b925050602061112485828601611097565b9150509250929050565b600080600060608486031215611147576111466118b7565b5b600061115586828701611097565b935050602061116686828701611097565b9250506040611177868287016110ac565b9150509250925092565b60008060408385031215611198576111976118b7565b5b60006111a685828601611097565b92505060206111b7858286016110ac565b9150509250929050565b6111ca8161179f565b82525050565b6111d9816117b1565b82525050565b60006111ea82611562565b6111f4818561156d565b93506112048185602086016117f4565b61120d816118bc565b840191505092915050565b600061122560238361156d565b9150611230826118da565b604082019050919050565b600061124860268361156d565b915061125382611929565b604082019050919050565b600061126b60228361156d565b915061127682611978565b604082019050919050565b600061128e601d8361156d565b9150611299826119c7565b602082019050919050565b60006112b160268361156d565b91506112bc826119f0565b604082019050919050565b60006112d460208361156d565b91506112df82611a3f565b602082019050919050565b60006112f760258361156d565b915061130282611a68565b604082019050919050565b600061131a60248361156d565b915061132582611ab7565b604082019050919050565b600061133d60258361156d565b915061134882611b06565b604082019050919050565b6000611360601f8361156d565b915061136b82611b55565b602082019050919050565b61137f816117dd565b82525050565b61138e816117e7565b82525050565b60006020820190506113a960008301846111c1565b92915050565b60006020820190506113c460008301846111d0565b92915050565b600060208201905081810360008301526113e481846111df565b905092915050565b6000602082019050818103600083015261140581611218565b9050919050565b600060208201905081810360008301526114258161123b565b9050919050565b600060208201905081810360008301526114458161125e565b9050919050565b6000602082019050818103600083015261146581611281565b9050919050565b60006020820190508181036000830152611485816112a4565b9050919050565b600060208201905081810360008301526114a5816112c7565b9050919050565b600060208201905081810360008301526114c5816112ea565b9050919050565b600060208201905081810360008301526114e58161130d565b9050919050565b6000602082019050818103600083015261150581611330565b9050919050565b6000602082019050818103600083015261152581611353565b9050919050565b60006020820190506115416000830184611376565b92915050565b600060208201905061155c6000830184611385565b92915050565b600081519050919050565b600082825260208201905092915050565b6000611589826117dd565b9150611594836117dd565b9250827fffffffffffffffffffffffffffffffffffffffffffffffffffffffffffffffff038211156115c9576115c8611859565b5b828201905092915050565b6000808291508390505b600185111561161e578086048111156115fa576115f9611859565b5b60018516156116095780820291505b8081029050611617856118cd565b94506115de565b94509492505050565b6000611632826117dd565b915061163d836117e7565b925061166a7fffffffffffffffffffffffffffffffffffffffffffffffffffffffffffffffff8484611672565b905092915050565b600082611682576001905061173e565b81611690576000905061173e565b81600181146116a657600281146116b0576116df565b600191505061173e565b60ff8411156116c2576116c1611859565b5b8360020a9150848211156116d9576116d8611859565b5b5061173e565b5060208310610133831016604e8410600b84101617156117145782820a90508381111561170f5761170e611859565b5b61173e565b61172184848460016115d4565b9250905081840481111561173857611737611859565b5b81810290505b9392505050565b6000611750826117dd565b915061175b836117dd565b9250817fffffffffffffffffffffffffffffffffffffffffffffffffffffffffffffffff048311821515161561179457611793611859565b5b828202905092915050565b60006117aa826117bd565b9050919050565b60008115159050919050565b600073ffffffffffffffffffffffffffffffffffffffff82169050919050565b6000819050919050565b600060ff82169050919050565b60005b838110156118125780820151818401526020810190506117f7565b83811115611821576000848401525b50505050565b6000600282049050600182168061183f57607f821691505b6020821081141561185357611852611888565b5b50919050565b7f4e487b7100000000000000000000000000000000000000000000000000000000600052601160045260246000fd5b7f4e487b7100000000000000000000000000000000000000000000000000000000600052602260045260246000fd5b600080fd5b6000601f19601f8301169050919050565b60008160011c9050919050565b7f45524332303a207472616e7366657220746f20746865207a65726f206164647260008201527f6573730000000000000000000000000000000000000000000000000000000000602082015250565b7f4f776e61626c653a206e6577206f776e657220697320746865207a65726f206160008201527f6464726573730000000000000000000000000000000000000000000000000000602082015250565b7f45524332303a20617070726f766520746f20746865207a65726f20616464726560008201527f7373000000000000000000000000000000000000000000000000000000000000602082015250565b7f45524332303a20696e73756666696369656e7420616c6c6f77616e6365000000600082015250565b7f45524332303a207472616e7366657220616d6f756e742065786365656473206260008201527f616c616e63650000000000000000000000000000000000000000000000000000602082015250565b7f4f776e61626c653a2063616c6c6572206973206e6f7420746865206f776e6572600082015250565b7f45524332303a207472616e736665722066726f6d20746865207a65726f20616460008201527f6472657373000000000000000000000000000000000000000000000000000000602082015250565b7f45524332303a20617070726f76652066726f6d20746865207a65726f2061646460008201527f7265737300000000000000000000000000000000000000000000000000000000602082015250565b7f45524332303a2064656372656173656420616c6c6f77616e63652062656c6f7760008201527f207a65726f000000000000000000000000000000000000000000000000000000602082015250565b7f45524332303a206d696e7420746f20746865207a65726f206164647265737300600082015250565b611b878161179f565b8114611b9257600080fd5b50565b611b9e816117dd565b8114611ba957600080fd5b5056fea264697066735822122044cde285ea8ebcd3335b83bed6b3534a0bb9d40a0a59a1955097c2c070890a1b64736f6c63430008070033",
  "immutableReferences": {},
  "source": "// SPDX-License-Identifier: MIT\r\npragma solidity 0.8.7;\r\n\r\nimport \"@openzeppelin/contracts/token/ERC20/ERC20.sol\";\r\nimport \"@openzeppelin/contracts/access/Ownable.sol\";\r\n\r\ncontract Dbar is Ownable, ERC20 {\r\n    constructor() ERC20(\"dbar\", \"DBR\") {\r\n        _mint(msg.sender, 200 * 10 ** decimals());\r\n    }\r\n\r\n    function fundRewards(address rewardsContract) public onlyOwner {\r\n        _mint(rewardsContract, 10000000 * 10 ** decimals());\r\n\r\n    }\r\n}",
  "sourcePath": "C:\\Users\\13018\\Documents\\code\\solidity\\StakingChallange\\contracts\\erc20\\Dbar.sol",
  "compiler": {
    "name": "solc",
    "version": "0.8.7+commit.e28d00a7.Emscripten.clang"
  },
  "schemaVersion": "3.4.4",
  "updatedAt": "2022-02-25T04:54:52.593Z",
  "networkType": "ethereum",
  "devdoc": {
    "kind": "dev",
    "methods": {
      "allowance(address,address)": {
        "details": "See {IERC20-allowance}."
      },
      "approve(address,uint256)": {
        "details": "See {IERC20-approve}. NOTE: If `amount` is the maximum `uint256`, the allowance is not updated on `transferFrom`. This is semantically equivalent to an infinite approval. Requirements: - `spender` cannot be the zero address."
      },
      "balanceOf(address)": {
        "details": "See {IERC20-balanceOf}."
      },
      "decimals()": {
        "details": "Returns the number of decimals used to get its user representation. For example, if `decimals` equals `2`, a balance of `505` tokens should be displayed to a user as `5.05` (`505 / 10 ** 2`). Tokens usually opt for a value of 18, imitating the relationship between Ether and Wei. This is the value {ERC20} uses, unless this function is overridden; NOTE: This information is only used for _display_ purposes: it in no way affects any of the arithmetic of the contract, including {IERC20-balanceOf} and {IERC20-transfer}."
      },
      "decreaseAllowance(address,uint256)": {
        "details": "Atomically decreases the allowance granted to `spender` by the caller. This is an alternative to {approve} that can be used as a mitigation for problems described in {IERC20-approve}. Emits an {Approval} event indicating the updated allowance. Requirements: - `spender` cannot be the zero address. - `spender` must have allowance for the caller of at least `subtractedValue`."
      },
      "increaseAllowance(address,uint256)": {
        "details": "Atomically increases the allowance granted to `spender` by the caller. This is an alternative to {approve} that can be used as a mitigation for problems described in {IERC20-approve}. Emits an {Approval} event indicating the updated allowance. Requirements: - `spender` cannot be the zero address."
      },
      "name()": {
        "details": "Returns the name of the token."
      },
      "owner()": {
        "details": "Returns the address of the current owner."
      },
      "renounceOwnership()": {
        "details": "Leaves the contract without owner. It will not be possible to call `onlyOwner` functions anymore. Can only be called by the current owner. NOTE: Renouncing ownership will leave the contract without an owner, thereby removing any functionality that is only available to the owner."
      },
      "symbol()": {
        "details": "Returns the symbol of the token, usually a shorter version of the name."
      },
      "totalSupply()": {
        "details": "See {IERC20-totalSupply}."
      },
      "transfer(address,uint256)": {
        "details": "See {IERC20-transfer}. Requirements: - `to` cannot be the zero address. - the caller must have a balance of at least `amount`."
      },
      "transferFrom(address,address,uint256)": {
        "details": "See {IERC20-transferFrom}. Emits an {Approval} event indicating the updated allowance. This is not required by the EIP. See the note at the beginning of {ERC20}. NOTE: Does not update the allowance if the current allowance is the maximum `uint256`. Requirements: - `from` and `to` cannot be the zero address. - `from` must have a balance of at least `amount`. - the caller must have allowance for ``from``'s tokens of at least `amount`."
      },
      "transferOwnership(address)": {
        "details": "Transfers ownership of the contract to a new account (`newOwner`). Can only be called by the current owner."
      }
    },
    "version": 1
  },
  "userdoc": {
    "kind": "user",
    "methods": {},
    "version": 1
  }
}