{
  "contractName": "Rewards",
  "abi": [
    {
      "inputs": [],
      "stateMutability": "nonpayable",
      "type": "constructor"
    },
    {
      "anonymous": false,
      "inputs": [
        {
          "indexed": true,
          "internalType": "address",
          "name": "previousOwner",
          "type": "address"
        },
        {
          "indexed": true,
          "internalType": "address",
          "name": "newOwner",
          "type": "address"
        }
      ],
      "name": "OwnershipTransferred",
      "type": "event"
    },
    {
      "inputs": [],
      "name": "dbar",
      "outputs": [
        {
          "internalType": "contract IERC20",
          "name": "",
          "type": "address"
        }
      ],
      "stateMutability": "view",
      "type": "function",
      "constant": true
    },
    {
      "inputs": [],
      "name": "owner",
      "outputs": [
        {
          "internalType": "address",
          "name": "",
          "type": "address"
        }
      ],
      "stateMutability": "view",
      "type": "function",
      "constant": true
    },
    {
      "inputs": [],
      "name": "renounceOwnership",
      "outputs": [],
      "stateMutability": "nonpayable",
      "type": "function"
    },
    {
      "inputs": [],
      "name": "stakingContract",
      "outputs": [
        {
          "internalType": "address",
          "name": "",
          "type": "address"
        }
      ],
      "stateMutability": "view",
      "type": "function",
      "constant": true
    },
    {
      "inputs": [
        {
          "internalType": "address",
          "name": "newOwner",
          "type": "address"
        }
      ],
      "name": "transferOwnership",
      "outputs": [],
      "stateMutability": "nonpayable",
      "type": "function"
    },
    {
      "inputs": [],
      "name": "xdbar",
      "outputs": [
        {
          "internalType": "contract IxDbar",
          "name": "",
          "type": "address"
        }
      ],
      "stateMutability": "view",
      "type": "function",
      "constant": true
    },
    {
      "inputs": [
        {
          "internalType": "address",
          "name": "xDbar",
          "type": "address"
        },
        {
          "internalType": "address",
          "name": "_dbar",
          "type": "address"
        },
        {
          "internalType": "address",
          "name": "_stakingContract",
          "type": "address"
        }
      ],
      "name": "setUp",
      "outputs": [],
      "stateMutability": "nonpayable",
      "type": "function"
    },
    {
      "inputs": [],
      "name": "redeem",
      "outputs": [
        {
          "internalType": "uint256",
          "name": "",
          "type": "uint256"
        }
      ],
      "stateMutability": "nonpayable",
      "type": "function"
    }
  ],
  "bytecode": "0x608060405234801561001057600080fd5b5061002d61002261003260201b60201c565b61003a60201b60201c565b6100fe565b600033905090565b60008060009054906101000a900473ffffffffffffffffffffffffffffffffffffffff169050816000806101000a81548173ffffffffffffffffffffffffffffffffffffffff021916908373ffffffffffffffffffffffffffffffffffffffff1602179055508173ffffffffffffffffffffffffffffffffffffffff168173ffffffffffffffffffffffffffffffffffffffff167f8be0079c531659141344cd1fd0a4f28419497f9722a3daafe3b4186f6b6457e060405160405180910390a35050565b610cdf8061010d6000396000f3fe608060405234801561001057600080fd5b50600436106100885760003560e01c8063be040fb01161005b578063be040fb0146100ef578063ee99205c1461010d578063f2fde38b1461012b578063f838e6631461014757610088565b80632371a79c1461008d5780636812b16c146100ab578063715018a6146100c75780638da5cb5b146100d1575b600080fd5b610095610165565b6040516100a291906109f8565b60405180910390f35b6100c560048036038101906100c09190610885565b61018b565b005b6100cf6102d6565b005b6100d961035e565b6040516100e691906109b4565b60405180910390f35b6100f7610387565b6040516101049190610a6e565b60405180910390f35b610115610609565b60405161012291906109b4565b60405180910390f35b61014560048036038101906101409190610858565b61062f565b005b61014f610727565b60405161015c9190610a13565b60405180910390f35b600360009054906101000a900473ffffffffffffffffffffffffffffffffffffffff1681565b61019361074d565b73ffffffffffffffffffffffffffffffffffffffff166101b161035e565b73ffffffffffffffffffffffffffffffffffffffff1614610207576040517f08c379a00000000000000000000000000000000000000000000000000000000081526004016101fe90610a4e565b60405180910390fd5b81600360006101000a81548173ffffffffffffffffffffffffffffffffffffffff021916908373ffffffffffffffffffffffffffffffffffffffff16021790555082600460006101000a81548173ffffffffffffffffffffffffffffffffffffffff021916908373ffffffffffffffffffffffffffffffffffffffff16021790555080600260006101000a81548173ffffffffffffffffffffffffffffffffffffffff021916908373ffffffffffffffffffffffffffffffffffffffff16021790555043600181905550505050565b6102de61074d565b73ffffffffffffffffffffffffffffffffffffffff166102fc61035e565b73ffffffffffffffffffffffffffffffffffffffff1614610352576040517f08c379a000000000000000000000000000000000000000000000000000000000815260040161034990610a4e565b60405180910390fd5b61035c6000610755565b565b60008060009054906101000a900473ffffffffffffffffffffffffffffffffffffffff16905090565b600080600460009054906101000a900473ffffffffffffffffffffffffffffffffffffffff1673ffffffffffffffffffffffffffffffffffffffff166370a08231336040518263ffffffff1660e01b81526004016103e591906109b4565b60206040518083038186803b1580156103fd57600080fd5b505afa158015610411573d6000803e3d6000fd5b505050506040513d601f19601f820116820180604052508101906104359190610905565b1161043f57600080fd5b60006001544361044f9190610af4565b9050600081678ac7230489e800006104679190610a9a565b905080600360009054906101000a900473ffffffffffffffffffffffffffffffffffffffff1673ffffffffffffffffffffffffffffffffffffffff166370a08231306040518263ffffffff1660e01b81526004016104c591906109b4565b60206040518083038186803b1580156104dd57600080fd5b505afa1580156104f1573d6000803e3d6000fd5b505050506040513d601f19601f820116820180604052508101906105159190610905565b101561052057600080fd5b600360009054906101000a900473ffffffffffffffffffffffffffffffffffffffff1673ffffffffffffffffffffffffffffffffffffffff1663a9059cbb600260009054906101000a900473ffffffffffffffffffffffffffffffffffffffff16836040518363ffffffff1660e01b815260040161059f9291906109cf565b602060405180830381600087803b1580156105b957600080fd5b505af11580156105cd573d6000803e3d6000fd5b505050506040513d601f19601f820116820180604052508101906105f191906108d8565b6105fa57600080fd5b43600181905550809250505090565b600260009054906101000a900473ffffffffffffffffffffffffffffffffffffffff1681565b61063761074d565b73ffffffffffffffffffffffffffffffffffffffff1661065561035e565b73ffffffffffffffffffffffffffffffffffffffff16146106ab576040517f08c379a00000000000000000000000000000000000000000000000000000000081526004016106a290610a4e565b60405180910390fd5b600073ffffffffffffffffffffffffffffffffffffffff168173ffffffffffffffffffffffffffffffffffffffff16141561071b576040517f08c379a000000000000000000000000000000000000000000000000000000000815260040161071290610a2e565b60405180910390fd5b61072481610755565b50565b600460009054906101000a900473ffffffffffffffffffffffffffffffffffffffff1681565b600033905090565b60008060009054906101000a900473ffffffffffffffffffffffffffffffffffffffff169050816000806101000a81548173ffffffffffffffffffffffffffffffffffffffff021916908373ffffffffffffffffffffffffffffffffffffffff1602179055508173ffffffffffffffffffffffffffffffffffffffff168173ffffffffffffffffffffffffffffffffffffffff167f8be0079c531659141344cd1fd0a4f28419497f9722a3daafe3b4186f6b6457e060405160405180910390a35050565b60008135905061082881610c64565b92915050565b60008151905061083d81610c7b565b92915050565b60008151905061085281610c92565b92915050565b60006020828403121561086e5761086d610be7565b5b600061087c84828501610819565b91505092915050565b60008060006060848603121561089e5761089d610be7565b5b60006108ac86828701610819565b93505060206108bd86828701610819565b92505060406108ce86828701610819565b9150509250925092565b6000602082840312156108ee576108ed610be7565b5b60006108fc8482850161082e565b91505092915050565b60006020828403121561091b5761091a610be7565b5b600061092984828501610843565b91505092915050565b61093b81610b28565b82525050565b61094a81610b70565b82525050565b61095981610b82565b82525050565b600061096c602683610a89565b915061097782610bec565b604082019050919050565b600061098f602083610a89565b915061099a82610c3b565b602082019050919050565b6109ae81610b66565b82525050565b60006020820190506109c96000830184610932565b92915050565b60006040820190506109e46000830185610932565b6109f160208301846109a5565b9392505050565b6000602082019050610a0d6000830184610941565b92915050565b6000602082019050610a286000830184610950565b92915050565b60006020820190508181036000830152610a478161095f565b9050919050565b60006020820190508181036000830152610a6781610982565b9050919050565b6000602082019050610a8360008301846109a5565b92915050565b600082825260208201905092915050565b6000610aa582610b66565b9150610ab083610b66565b9250817fffffffffffffffffffffffffffffffffffffffffffffffffffffffffffffffff0483118215151615610ae957610ae8610bb8565b5b828202905092915050565b6000610aff82610b66565b9150610b0a83610b66565b925082821015610b1d57610b1c610bb8565b5b828203905092915050565b6000610b3382610b46565b9050919050565b60008115159050919050565b600073ffffffffffffffffffffffffffffffffffffffff82169050919050565b6000819050919050565b6000610b7b82610b94565b9050919050565b6000610b8d82610b94565b9050919050565b6000610b9f82610ba6565b9050919050565b6000610bb182610b46565b9050919050565b7f4e487b7100000000000000000000000000000000000000000000000000000000600052601160045260246000fd5b600080fd5b7f4f776e61626c653a206e6577206f776e657220697320746865207a65726f206160008201527f6464726573730000000000000000000000000000000000000000000000000000602082015250565b7f4f776e61626c653a2063616c6c6572206973206e6f7420746865206f776e6572600082015250565b610c6d81610b28565b8114610c7857600080fd5b50565b610c8481610b3a565b8114610c8f57600080fd5b50565b610c9b81610b66565b8114610ca657600080fd5b5056fea2646970667358221220f8a7a6942beb7c532a9ef29a0e550b268b0adabdf8f7ea2d21785e67d653ff7c64736f6c63430008070033",
  "immutableReferences": {},
  "source": "pragma solidity 0.8.7;\r\n\r\nimport \"@openzeppelin/contracts/token/ERC20/IERC20.sol\";\r\nimport \"@openzeppelin/contracts/access/Ownable.sol\";\r\nimport \"./interfaces/IxDbar.sol\";\r\n\r\n\r\n\r\ncontract Rewards is Ownable {\r\n\r\n    uint lastRedeemed;\r\n\r\n    address public stakingContract;\r\n\r\n    IERC20 public dbar;\r\n    IxDbar public xdbar;\r\n\r\n\r\n\r\n\r\n    constructor() {\r\n        \r\n        \r\n\r\n    }\r\n\r\n    function setUp(address xDbar, address _dbar, address _stakingContract) public onlyOwner {\r\n        dbar = IERC20(_dbar);\r\n        xdbar = IxDbar(xDbar);\r\n        stakingContract = _stakingContract;\r\n        lastRedeemed = block.number;\r\n    }\r\n\r\n    function redeem() public returns (uint) {\r\n        require(xdbar.balanceOf(msg.sender) > 0);\r\n        \r\n        \r\n        uint passedBlocks = block.number - lastRedeemed;\r\n        uint transferAmount = (10 * 1 ether) * passedBlocks;\r\n        require(dbar.balanceOf(address(this)) >= transferAmount);\r\n        require(dbar.transfer(stakingContract, transferAmount));\r\n        lastRedeemed = block.number;\r\n        return transferAmount;\r\n\r\n    }\r\n\r\n}",
  "sourcePath": "C:\\Users\\13018\\Documents\\code\\solidity\\StakingChallange\\contracts\\Rewards.sol",
  "compiler": {
    "name": "solc",
    "version": "0.8.7+commit.e28d00a7.Emscripten.clang"
  },
  "schemaVersion": "3.4.4",
  "updatedAt": "2022-02-25T04:34:05.792Z",
  "networkType": "ethereum",
  "devdoc": {
    "kind": "dev",
    "methods": {
      "owner()": {
        "details": "Returns the address of the current owner."
      },
      "renounceOwnership()": {
        "details": "Leaves the contract without owner. It will not be possible to call `onlyOwner` functions anymore. Can only be called by the current owner. NOTE: Renouncing ownership will leave the contract without an owner, thereby removing any functionality that is only available to the owner."
      },
      "transferOwnership(address)": {
        "details": "Transfers ownership of the contract to a new account (`newOwner`). Can only be called by the current owner."
      }
    },
    "version": 1
  },
  "userdoc": {
    "kind": "user",
    "methods": {},
    "version": 1
  }
}