{
  "contractName": "Staking",
  "abi": [
    {
      "inputs": [],
      "stateMutability": "nonpayable",
      "type": "constructor"
    },
    {
      "anonymous": false,
      "inputs": [
        {
          "indexed": true,
          "internalType": "address",
          "name": "previousOwner",
          "type": "address"
        },
        {
          "indexed": true,
          "internalType": "address",
          "name": "newOwner",
          "type": "address"
        }
      ],
      "name": "OwnershipTransferred",
      "type": "event"
    },
    {
      "inputs": [],
      "name": "dbar",
      "outputs": [
        {
          "internalType": "contract IERC20",
          "name": "",
          "type": "address"
        }
      ],
      "stateMutability": "view",
      "type": "function",
      "constant": true
    },
    {
      "inputs": [],
      "name": "dbarAddress",
      "outputs": [
        {
          "internalType": "address",
          "name": "",
          "type": "address"
        }
      ],
      "stateMutability": "view",
      "type": "function",
      "constant": true
    },
    {
      "inputs": [],
      "name": "owner",
      "outputs": [
        {
          "internalType": "address",
          "name": "",
          "type": "address"
        }
      ],
      "stateMutability": "view",
      "type": "function",
      "constant": true
    },
    {
      "inputs": [],
      "name": "renounceOwnership",
      "outputs": [],
      "stateMutability": "nonpayable",
      "type": "function"
    },
    {
      "inputs": [
        {
          "internalType": "address",
          "name": "newOwner",
          "type": "address"
        }
      ],
      "name": "transferOwnership",
      "outputs": [],
      "stateMutability": "nonpayable",
      "type": "function"
    },
    {
      "inputs": [],
      "name": "xDbar",
      "outputs": [
        {
          "internalType": "contract IxDbar",
          "name": "",
          "type": "address"
        }
      ],
      "stateMutability": "view",
      "type": "function",
      "constant": true
    },
    {
      "inputs": [],
      "name": "xDbarAddress",
      "outputs": [
        {
          "internalType": "address",
          "name": "",
          "type": "address"
        }
      ],
      "stateMutability": "view",
      "type": "function",
      "constant": true
    },
    {
      "inputs": [
        {
          "internalType": "address",
          "name": "_dbar",
          "type": "address"
        },
        {
          "internalType": "address",
          "name": "_xDbar",
          "type": "address"
        }
      ],
      "name": "setUp",
      "outputs": [],
      "stateMutability": "nonpayable",
      "type": "function"
    },
    {
      "inputs": [
        {
          "internalType": "uint256",
          "name": "amount",
          "type": "uint256"
        }
      ],
      "name": "deposit",
      "outputs": [],
      "stateMutability": "nonpayable",
      "type": "function"
    },
    {
      "inputs": [
        {
          "internalType": "uint256",
          "name": "amount",
          "type": "uint256"
        }
      ],
      "name": "withdraw",
      "outputs": [],
      "stateMutability": "nonpayable",
      "type": "function"
    }
  ],
  "bytecode": "0x608060405234801561001057600080fd5b5061002d61002261003260201b60201c565b61003a60201b60201c565b6100fe565b600033905090565b60008060009054906101000a900473ffffffffffffffffffffffffffffffffffffffff169050816000806101000a81548173ffffffffffffffffffffffffffffffffffffffff021916908373ffffffffffffffffffffffffffffffffffffffff1602179055508173ffffffffffffffffffffffffffffffffffffffff168173ffffffffffffffffffffffffffffffffffffffff167f8be0079c531659141344cd1fd0a4f28419497f9722a3daafe3b4186f6b6457e060405160405180910390a35050565b6113b68061010d6000396000f3fe608060405234801561001057600080fd5b506004361061009e5760003560e01c80638da5cb5b116100665780638da5cb5b14610121578063b6b55f251461013f578063cdb182421461015b578063f0e3875014610179578063f2fde38b146101975761009e565b80632371a79c146100a35780632e1a7d4d146100c15780635d2bd2ae146100dd578063715018a6146100fb57806384d3127d14610105575b600080fd5b6100ab6101b3565b6040516100b89190610fe3565b60405180910390f35b6100db60048036038101906100d69190610e23565b6101d9565b005b6100e56105b7565b6040516100f29190610f68565b60405180910390f35b6101036105dd565b005b61011f600480360381019061011a9190610db6565b610665565b005b610129610767565b6040516101369190610f68565b60405180910390f35b61015960048036038101906101549190610e23565b610790565b005b610163610b25565b6040516101709190610ffe565b60405180910390f35b610181610b4b565b60405161018e9190610f68565b60405180910390f35b6101b160048036038101906101ac9190610d89565b610b71565b005b600460009054906101000a900473ffffffffffffffffffffffffffffffffffffffff1681565b80600360009054906101000a900473ffffffffffffffffffffffffffffffffffffffff1673ffffffffffffffffffffffffffffffffffffffff166370a08231336040518263ffffffff1660e01b81526004016102359190610f68565b60206040518083038186803b15801561024d57600080fd5b505afa158015610261573d6000803e3d6000fd5b505050506040513d601f19601f820116820180604052508101906102859190610e50565b10156102c6576040517f08c379a00000000000000000000000000000000000000000000000000000000081526004016102bd90611019565b60405180910390fd5b6000600360009054906101000a900473ffffffffffffffffffffffffffffffffffffffff1673ffffffffffffffffffffffffffffffffffffffff166318160ddd6040518163ffffffff1660e01b815260040160206040518083038186803b15801561033057600080fd5b505afa158015610344573d6000803e3d6000fd5b505050506040513d601f19601f820116820180604052508101906103689190610e50565b90506000600460009054906101000a900473ffffffffffffffffffffffffffffffffffffffff1673ffffffffffffffffffffffffffffffffffffffff166370a08231306040518263ffffffff1660e01b81526004016103c79190610f68565b60206040518083038186803b1580156103df57600080fd5b505afa1580156103f3573d6000803e3d6000fd5b505050506040513d601f19601f820116820180604052508101906104179190610e50565b9050600082828561042891906110fb565b61043291906110ca565b9050600360009054906101000a900473ffffffffffffffffffffffffffffffffffffffff1673ffffffffffffffffffffffffffffffffffffffff16639dc29fac33866040518363ffffffff1660e01b8152600401610491929190610fba565b600060405180830381600087803b1580156104ab57600080fd5b505af11580156104bf573d6000803e3d6000fd5b50505050600460009054906101000a900473ffffffffffffffffffffffffffffffffffffffff1673ffffffffffffffffffffffffffffffffffffffff1663a9059cbb33836040518363ffffffff1660e01b8152600401610520929190610fba565b602060405180830381600087803b15801561053a57600080fd5b505af115801561054e573d6000803e3d6000fd5b505050506040513d601f19601f820116820180604052508101906105729190610df6565b6105b1576040517f08c379a00000000000000000000000000000000000000000000000000000000081526004016105a890611099565b60405180910390fd5b50505050565b600160009054906101000a900473ffffffffffffffffffffffffffffffffffffffff1681565b6105e5610c69565b73ffffffffffffffffffffffffffffffffffffffff16610603610767565b73ffffffffffffffffffffffffffffffffffffffff1614610659576040517f08c379a000000000000000000000000000000000000000000000000000000000815260040161065090611059565b60405180910390fd5b6106636000610c71565b565b61066d610c69565b73ffffffffffffffffffffffffffffffffffffffff1661068b610767565b73ffffffffffffffffffffffffffffffffffffffff16146106e1576040517f08c379a00000000000000000000000000000000000000000000000000000000081526004016106d890611059565b60405180910390fd5b81600460006101000a81548173ffffffffffffffffffffffffffffffffffffffff021916908373ffffffffffffffffffffffffffffffffffffffff16021790555080600360006101000a81548173ffffffffffffffffffffffffffffffffffffffff021916908373ffffffffffffffffffffffffffffffffffffffff1602179055505050565b60008060009054906101000a900473ffffffffffffffffffffffffffffffffffffffff16905090565b6000600460009054906101000a900473ffffffffffffffffffffffffffffffffffffffff1673ffffffffffffffffffffffffffffffffffffffff166370a08231306040518263ffffffff1660e01b81526004016107ed9190610f68565b60206040518083038186803b15801561080557600080fd5b505afa158015610819573d6000803e3d6000fd5b505050506040513d601f19601f8201168201806040525081019061083d9190610e50565b90506000600360009054906101000a900473ffffffffffffffffffffffffffffffffffffffff1673ffffffffffffffffffffffffffffffffffffffff166318160ddd6040518163ffffffff1660e01b815260040160206040518083038186803b1580156108a957600080fd5b505afa1580156108bd573d6000803e3d6000fd5b505050506040513d601f19601f820116820180604052508101906108e19190610e50565b905060008214806108f25750600081145b6109a057600360009054906101000a900473ffffffffffffffffffffffffffffffffffffffff1673ffffffffffffffffffffffffffffffffffffffff166340c10f193384848761094291906110fb565b61094c91906110ca565b6040518363ffffffff1660e01b8152600401610969929190610fba565b600060405180830381600087803b15801561098357600080fd5b505af1158015610997573d6000803e3d6000fd5b50505050610a30565b600360009054906101000a900473ffffffffffffffffffffffffffffffffffffffff1673ffffffffffffffffffffffffffffffffffffffff166340c10f1933856040518363ffffffff1660e01b81526004016109fd929190610fba565b600060405180830381600087803b158015610a1757600080fd5b505af1158015610a2b573d6000803e3d6000fd5b505050505b600460009054906101000a900473ffffffffffffffffffffffffffffffffffffffff1673ffffffffffffffffffffffffffffffffffffffff166323b872dd3330866040518463ffffffff1660e01b8152600401610a8f93929190610f83565b602060405180830381600087803b158015610aa957600080fd5b505af1158015610abd573d6000803e3d6000fd5b505050506040513d601f19601f82011682018060405250810190610ae19190610df6565b610b20576040517f08c379a0000000000000000000000000000000000000000000000000000000008152600401610b1790611079565b60405180910390fd5b505050565b600360009054906101000a900473ffffffffffffffffffffffffffffffffffffffff1681565b600260009054906101000a900473ffffffffffffffffffffffffffffffffffffffff1681565b610b79610c69565b73ffffffffffffffffffffffffffffffffffffffff16610b97610767565b73ffffffffffffffffffffffffffffffffffffffff1614610bed576040517f08c379a0000000000000000000000000000000000000000000000000000000008152600401610be490611059565b60405180910390fd5b600073ffffffffffffffffffffffffffffffffffffffff168173ffffffffffffffffffffffffffffffffffffffff161415610c5d576040517f08c379a0000000000000000000000000000000000000000000000000000000008152600401610c5490611039565b60405180910390fd5b610c6681610c71565b50565b600033905090565b60008060009054906101000a900473ffffffffffffffffffffffffffffffffffffffff169050816000806101000a81548173ffffffffffffffffffffffffffffffffffffffff021916908373ffffffffffffffffffffffffffffffffffffffff1602179055508173ffffffffffffffffffffffffffffffffffffffff168173ffffffffffffffffffffffffffffffffffffffff167f8be0079c531659141344cd1fd0a4f28419497f9722a3daafe3b4186f6b6457e060405160405180910390a35050565b600081359050610d448161133b565b92915050565b600081519050610d5981611352565b92915050565b600081359050610d6e81611369565b92915050565b600081519050610d8381611369565b92915050565b600060208284031215610d9f57610d9e611243565b5b6000610dad84828501610d35565b91505092915050565b60008060408385031215610dcd57610dcc611243565b5b6000610ddb85828601610d35565b9250506020610dec85828601610d35565b9150509250929050565b600060208284031215610e0c57610e0b611243565b5b6000610e1a84828501610d4a565b91505092915050565b600060208284031215610e3957610e38611243565b5b6000610e4784828501610d5f565b91505092915050565b600060208284031215610e6657610e65611243565b5b6000610e7484828501610d74565b91505092915050565b610e8681611155565b82525050565b610e958161119d565b82525050565b610ea4816111af565b82525050565b6000610eb76016836110b9565b9150610ec282611248565b602082019050919050565b6000610eda6026836110b9565b9150610ee582611271565b604082019050919050565b6000610efd6020836110b9565b9150610f08826112c0565b602082019050919050565b6000610f206013836110b9565b9150610f2b826112e9565b602082019050919050565b6000610f436014836110b9565b9150610f4e82611312565b602082019050919050565b610f6281611193565b82525050565b6000602082019050610f7d6000830184610e7d565b92915050565b6000606082019050610f986000830186610e7d565b610fa56020830185610e7d565b610fb26040830184610f59565b949350505050565b6000604082019050610fcf6000830185610e7d565b610fdc6020830184610f59565b9392505050565b6000602082019050610ff86000830184610e8c565b92915050565b60006020820190506110136000830184610e9b565b92915050565b6000602082019050818103600083015261103281610eaa565b9050919050565b6000602082019050818103600083015261105281610ecd565b9050919050565b6000602082019050818103600083015261107281610ef0565b9050919050565b6000602082019050818103600083015261109281610f13565b9050919050565b600060208201905081810360008301526110b281610f36565b9050919050565b600082825260208201905092915050565b60006110d582611193565b91506110e083611193565b9250826110f0576110ef611214565b5b828204905092915050565b600061110682611193565b915061111183611193565b9250817fffffffffffffffffffffffffffffffffffffffffffffffffffffffffffffffff048311821515161561114a576111496111e5565b5b828202905092915050565b600061116082611173565b9050919050565b60008115159050919050565b600073ffffffffffffffffffffffffffffffffffffffff82169050919050565b6000819050919050565b60006111a8826111c1565b9050919050565b60006111ba826111c1565b9050919050565b60006111cc826111d3565b9050919050565b60006111de82611173565b9050919050565b7f4e487b7100000000000000000000000000000000000000000000000000000000600052601160045260246000fd5b7f4e487b7100000000000000000000000000000000000000000000000000000000600052601260045260246000fd5b600080fd5b7f616d6f756e7420657863656564732062616c616e636500000000000000000000600082015250565b7f4f776e61626c653a206e6577206f776e657220697320746865207a65726f206160008201527f6464726573730000000000000000000000000000000000000000000000000000602082015250565b7f4f776e61626c653a2063616c6c6572206973206e6f7420746865206f776e6572600082015250565b7f7472616e7366657246726f6d206661696c656400000000000000000000000000600082015250565b7f64626172207472616e73666572206661696c6564000000000000000000000000600082015250565b61134481611155565b811461134f57600080fd5b50565b61135b81611167565b811461136657600080fd5b50565b61137281611193565b811461137d57600080fd5b5056fea26469706673582212209de8d8cbef15f59ae5374a555f7c60c1d9aaffb10f2db014319da9b69bc505a564736f6c63430008070033",
  "immutableReferences": {},
  "source": "pragma solidity 0.8.7;\r\n\r\nimport \"@openzeppelin/contracts/token/ERC20/IERC20.sol\";\r\nimport \"./interfaces/IxDbar.sol\";\r\nimport \"@openzeppelin/contracts/access/Ownable.sol\";\r\n\r\n\r\n\r\n\r\ncontract Staking is Ownable {\r\n\r\n    address public dbarAddress;\r\n    address public xDbarAddress;\r\n    IxDbar public xDbar;\r\n    IERC20 public dbar;\r\n\r\n    \r\n\r\n    constructor() {\r\n    }\r\n\r\n    function setUp(address _dbar, address _xDbar) public onlyOwner {\r\n        dbar = IERC20(_dbar);\r\n        xDbar = IxDbar(_xDbar);\r\n    }\r\n\r\n\r\n\r\n\r\n\r\n    function deposit(uint amount) public {\r\n        \r\n        uint dbarBalance = dbar.balanceOf(address(this));\r\n        uint totalxDbar = xDbar.totalSupply();\r\n\r\n        dbarBalance == 0 || totalxDbar == 0 \r\n        ? \r\n        xDbar.mint(msg.sender, amount) \r\n        :\r\n        xDbar.mint(msg.sender, (amount * totalxDbar) / dbarBalance);\r\n        require(dbar.transferFrom(msg.sender, address(this), amount),\"transferFrom failed\");\r\n\r\n        \r\n        \r\n\r\n    }\r\n\r\n    function withdraw(uint amount) public {\r\n        require(xDbar.balanceOf(msg.sender) >= amount, \"amount exceeds balance\");\r\n        uint totalxDbar = xDbar.totalSupply();\r\n        uint dbarBalance = dbar.balanceOf(address(this));\r\n        uint withdrawAmount = (amount * dbarBalance) / totalxDbar;\r\n        xDbar.burn(msg.sender, amount);\r\n        require(dbar.transfer(msg.sender,withdrawAmount), \"dbar transfer failed\");\r\n\r\n    }\r\n\r\n}",
  "sourcePath": "C:\\Users\\13018\\Documents\\code\\solidity\\StakingChallange\\contracts\\Staking.sol",
  "compiler": {
    "name": "solc",
    "version": "0.8.7+commit.e28d00a7.Emscripten.clang"
  },
  "schemaVersion": "3.4.4",
  "updatedAt": "2022-02-25T04:34:05.782Z",
  "networkType": "ethereum",
  "devdoc": {
    "kind": "dev",
    "methods": {
      "owner()": {
        "details": "Returns the address of the current owner."
      },
      "renounceOwnership()": {
        "details": "Leaves the contract without owner. It will not be possible to call `onlyOwner` functions anymore. Can only be called by the current owner. NOTE: Renouncing ownership will leave the contract without an owner, thereby removing any functionality that is only available to the owner."
      },
      "transferOwnership(address)": {
        "details": "Transfers ownership of the contract to a new account (`newOwner`). Can only be called by the current owner."
      }
    },
    "version": 1
  },
  "userdoc": {
    "kind": "user",
    "methods": {},
    "version": 1
  }
}